{
  "_format": "hh-sol-artifact-1",
  "contractName": "TipPost",
  "sourceName": "contracts/TipPost.sol",
  "abi": [
    {
      "anonymous": false,
      "inputs": [
        {
          "indexed": true,
          "internalType": "uint256",
          "name": "id",
          "type": "uint256"
        },
        {
          "indexed": true,
          "internalType": "address",
          "name": "creator",
          "type": "address"
        },
        {
          "indexed": false,
          "internalType": "string",
          "name": "imageUrl",
          "type": "string"
        },
        {
          "indexed": false,
          "internalType": "string",
          "name": "caption",
          "type": "string"
        },
        {
          "indexed": false,
          "internalType": "uint256",
          "name": "timestamp",
          "type": "uint256"
        }
      ],
      "name": "PostCreated",
      "type": "event"
    },
    {
      "anonymous": false,
      "inputs": [
        {
          "indexed": true,
          "internalType": "uint256",
          "name": "postId",
          "type": "uint256"
        },
        {
          "indexed": true,
          "internalType": "address",
          "name": "liker",
          "type": "address"
        },
        {
          "indexed": true,
          "internalType": "address",
          "name": "creator",
          "type": "address"
        },
        {
          "indexed": false,
          "internalType": "uint256",
          "name": "amount",
          "type": "uint256"
        }
      ],
      "name": "PostLiked",
      "type": "event"
    },
    {
      "inputs": [
        {
          "internalType": "uint256",
          "name": "postId",
          "type": "uint256"
        },
        {
          "internalType": "address",
          "name": "user",
          "type": "address"
        }
      ],
      "name": "checkLiked",
      "outputs": [
        {
          "internalType": "bool",
          "name": "",
          "type": "bool"
        }
      ],
      "stateMutability": "view",
      "type": "function"
    },
    {
      "inputs": [
        {
          "internalType": "string",
          "name": "imageUrl",
          "type": "string"
        },
        {
          "internalType": "string",
          "name": "caption",
          "type": "string"
        }
      ],
      "name": "createPost",
      "outputs": [],
      "stateMutability": "nonpayable",
      "type": "function"
    },
    {
      "inputs": [],
      "name": "getAllPosts",
      "outputs": [
        {
          "components": [
            {
              "internalType": "uint256",
              "name": "id",
              "type": "uint256"
            },
            {
              "internalType": "address",
              "name": "creator",
              "type": "address"
            },
            {
              "internalType": "string",
              "name": "imageUrl",
              "type": "string"
            },
            {
              "internalType": "string",
              "name": "caption",
              "type": "string"
            },
            {
              "internalType": "uint256",
              "name": "likes",
              "type": "uint256"
            },
            {
              "internalType": "uint256",
              "name": "totalEarned",
              "type": "uint256"
            },
            {
              "internalType": "uint256",
              "name": "timestamp",
              "type": "uint256"
            }
          ],
          "internalType": "struct TipPost.Post[]",
          "name": "",
          "type": "tuple[]"
        }
      ],
      "stateMutability": "view",
      "type": "function"
    },
    {
      "inputs": [
        {
          "internalType": "uint256",
          "name": "",
          "type": "uint256"
        },
        {
          "internalType": "address",
          "name": "",
          "type": "address"
        }
      ],
      "name": "hasLiked",
      "outputs": [
        {
          "internalType": "bool",
          "name": "",
          "type": "bool"
        }
      ],
      "stateMutability": "view",
      "type": "function"
    },
    {
      "inputs": [],
      "name": "likeCost",
      "outputs": [
        {
          "internalType": "uint256",
          "name": "",
          "type": "uint256"
        }
      ],
      "stateMutability": "view",
      "type": "function"
    },
    {
      "inputs": [
        {
          "internalType": "uint256",
          "name": "postId",
          "type": "uint256"
        }
      ],
      "name": "likePost",
      "outputs": [],
      "stateMutability": "payable",
      "type": "function"
    },
    {
      "inputs": [],
      "name": "postCount",
      "outputs": [
        {
          "internalType": "uint256",
          "name": "",
          "type": "uint256"
        }
      ],
      "stateMutability": "view",
      "type": "function"
    },
    {
      "inputs": [
        {
          "internalType": "uint256",
          "name": "",
          "type": "uint256"
        }
      ],
      "name": "posts",
      "outputs": [
        {
          "internalType": "uint256",
          "name": "id",
          "type": "uint256"
        },
        {
          "internalType": "address",
          "name": "creator",
          "type": "address"
        },
        {
          "internalType": "string",
          "name": "imageUrl",
          "type": "string"
        },
        {
          "internalType": "string",
          "name": "caption",
          "type": "string"
        },
        {
          "internalType": "uint256",
          "name": "likes",
          "type": "uint256"
        },
        {
          "internalType": "uint256",
          "name": "totalEarned",
          "type": "uint256"
        },
        {
          "internalType": "uint256",
          "name": "timestamp",
          "type": "uint256"
        }
      ],
      "stateMutability": "view",
      "type": "function"
    },
    {
      "inputs": [
        {
          "internalType": "address",
          "name": "",
          "type": "address"
        }
      ],
      "name": "totalEarnedByUser",
      "outputs": [
        {
          "internalType": "uint256",
          "name": "",
          "type": "uint256"
        }
      ],
      "stateMutability": "view",
      "type": "function"
    }
  ],
  "bytecode": "0x608060405234801561001057600080fd5b50611b6b806100206000396000f3fe6080604052600436106100865760003560e01c8063725009d311610059578063725009d31461014d5780638fb7092c14610169578063bd83a9e2146101a6578063f3841d2a146101e3578063f62c7e6e1461022057610086565b80630b1e7f831461008b57806317906c2e146100ce57806330561100146100f9578063392338f514610124575b600080fd5b34801561009757600080fd5b506100b260048036038101906100ad9190610e46565b61024b565b6040516100c59796959493929190610f53565b60405180910390f35b3480156100da57600080fd5b506100e36103bd565b6040516100f09190610fd0565b60405180910390f35b34801561010557600080fd5b5061010e6103c3565b60405161011b91906111b8565b60405180910390f35b34801561013057600080fd5b5061014b6004803603810190610146919061123f565b610624565b005b61016760048036038101906101629190610e46565b6108af565b005b34801561017557600080fd5b50610190600480360381019061018b91906112ec565b610cfa565b60405161019d9190611347565b60405180910390f35b3480156101b257600080fd5b506101cd60048036038101906101c891906112ec565b610d29565b6040516101da9190611347565b60405180910390f35b3480156101ef57600080fd5b5061020a60048036038101906102059190611362565b610d91565b6040516102179190610fd0565b60405180910390f35b34801561022c57600080fd5b50610235610da9565b6040516102429190610fd0565b60405180910390f35b60016020528060005260406000206000915090508060000154908060010160009054906101000a900473ffffffffffffffffffffffffffffffffffffffff169080600201805461029a906113be565b80601f01602080910402602001604051908101604052809291908181526020018280546102c6906113be565b80156103135780601f106102e857610100808354040283529160200191610313565b820191906000526020600020905b8154815290600101906020018083116102f657829003601f168201915b505050505090806003018054610328906113be565b80601f0160208091040260200160405190810160405280929190818152602001828054610354906113be565b80156103a15780601f10610376576101008083540402835291602001916103a1565b820191906000526020600020905b81548152906001019060200180831161038457829003601f168201915b5050505050908060040154908060050154908060060154905087565b60005481565b60606000805467ffffffffffffffff8111156103e2576103e16113ef565b5b60405190808252806020026020018201604052801561041b57816020015b610408610db3565b8152602001906001900390816104005790505b50905060005b60005481101561061c57600160008281526020019081526020016000206040518060e0016040529081600082015481526020016001820160009054906101000a900473ffffffffffffffffffffffffffffffffffffffff1673ffffffffffffffffffffffffffffffffffffffff1673ffffffffffffffffffffffffffffffffffffffff1681526020016002820180546104b9906113be565b80601f01602080910402602001604051908101604052809291908181526020018280546104e5906113be565b80156105325780601f1061050757610100808354040283529160200191610532565b820191906000526020600020905b81548152906001019060200180831161051557829003601f168201915b5050505050815260200160038201805461054b906113be565b80601f0160208091040260200160405190810160405280929190818152602001828054610577906113be565b80156105c45780601f10610599576101008083540402835291602001916105c4565b820191906000526020600020905b8154815290600101906020018083116105a757829003601f168201915b5050505050815260200160048201548152602001600582015481526020016006820154815250508282815181106105fe576105fd61141e565b5b602002602001018190525080806106149061147c565b915050610421565b508091505090565b6000848490501161066a576040517f08c379a000000000000000000000000000000000000000000000000000000000815260040161066190611510565b60405180910390fd5b600082829050116106b0576040517f08c379a00000000000000000000000000000000000000000000000000000000081526004016106a79061157c565b60405180910390fd5b6000805490506000808154809291906106c89061147c565b91905055506040518060e001604052808281526020013373ffffffffffffffffffffffffffffffffffffffff16815260200186868080601f016020809104026020016040519081016040528093929190818152602001838380828437600081840152601f19601f82011690508083019250505050505050815260200184848080601f016020809104026020016040519081016040528093929190818152602001838380828437600081840152601f19601f820116905080830192505050505050508152602001600081526020016000815260200142815250600160008381526020019081526020016000206000820151816000015560208201518160010160006101000a81548173ffffffffffffffffffffffffffffffffffffffff021916908373ffffffffffffffffffffffffffffffffffffffff16021790555060408201518160020190816108199190611748565b50606082015181600301908161082f9190611748565b506080820151816004015560a0820151816005015560c082015181600601559050503373ffffffffffffffffffffffffffffffffffffffff16817f1947cbf766c888fc9c5f4256cf388fe32d4901ff5bd47d3a4d5318af978cddbe87878787426040516108a0959493929190611856565b60405180910390a35050505050565b60005481106108f3576040517f08c379a00000000000000000000000000000000000000000000000000000000081526004016108ea906118eb565b60405180910390fd5b655af3107a400034101561093c576040517f08c379a000000000000000000000000000000000000000000000000000000000815260040161093390611957565b60405180910390fd5b6002600082815260200190815260200160002060003373ffffffffffffffffffffffffffffffffffffffff1673ffffffffffffffffffffffffffffffffffffffff16815260200190815260200160002060009054906101000a900460ff16156109da576040517f08c379a00000000000000000000000000000000000000000000000000000000081526004016109d1906119c3565b60405180910390fd5b60006001600083815260200190815260200160002090503373ffffffffffffffffffffffffffffffffffffffff168160010160009054906101000a900473ffffffffffffffffffffffffffffffffffffffff1673ffffffffffffffffffffffffffffffffffffffff1603610a83576040517f08c379a0000000000000000000000000000000000000000000000000000000008152600401610a7a90611a2f565b60405180910390fd5b60016002600084815260200190815260200160002060003373ffffffffffffffffffffffffffffffffffffffff1673ffffffffffffffffffffffffffffffffffffffff16815260200190815260200160002060006101000a81548160ff021916908315150217905550806004016000815480929190610b019061147c565b919050555034816005016000828254610b1a9190611a4f565b9250508190555034600360008360010160009054906101000a900473ffffffffffffffffffffffffffffffffffffffff1673ffffffffffffffffffffffffffffffffffffffff1673ffffffffffffffffffffffffffffffffffffffff1681526020019081526020016000206000828254610b949190611a4f565b9250508190555060008160010160009054906101000a900473ffffffffffffffffffffffffffffffffffffffff1673ffffffffffffffffffffffffffffffffffffffff1634604051610be590611ab4565b60006040518083038185875af1925050503d8060008114610c22576040519150601f19603f3d011682016040523d82523d6000602084013e610c27565b606091505b5050905080610c6b576040517f08c379a0000000000000000000000000000000000000000000000000000000008152600401610c6290611b15565b60405180910390fd5b8160010160009054906101000a900473ffffffffffffffffffffffffffffffffffffffff1673ffffffffffffffffffffffffffffffffffffffff163373ffffffffffffffffffffffffffffffffffffffff16847fa52683361f4b72bf21d66b5cf9727c4f49f4c0e12ec466cfad4473c8c971dfd734604051610ced9190610fd0565b60405180910390a4505050565b60026020528160005260406000206020528060005260406000206000915091509054906101000a900460ff1681565b60006002600084815260200190815260200160002060008373ffffffffffffffffffffffffffffffffffffffff1673ffffffffffffffffffffffffffffffffffffffff16815260200190815260200160002060009054906101000a900460ff16905092915050565b60036020528060005260406000206000915090505481565b655af3107a400081565b6040518060e0016040528060008152602001600073ffffffffffffffffffffffffffffffffffffffff16815260200160608152602001606081526020016000815260200160008152602001600081525090565b600080fd5b600080fd5b6000819050919050565b610e2381610e10565b8114610e2e57600080fd5b50565b600081359050610e4081610e1a565b92915050565b600060208284031215610e5c57610e5b610e06565b5b6000610e6a84828501610e31565b91505092915050565b610e7c81610e10565b82525050565b600073ffffffffffffffffffffffffffffffffffffffff82169050919050565b6000610ead82610e82565b9050919050565b610ebd81610ea2565b82525050565b600081519050919050565b600082825260208201905092915050565b60005b83811015610efd578082015181840152602081019050610ee2565b60008484015250505050565b6000601f19601f8301169050919050565b6000610f2582610ec3565b610f2f8185610ece565b9350610f3f818560208601610edf565b610f4881610f09565b840191505092915050565b600060e082019050610f68600083018a610e73565b610f756020830189610eb4565b8181036040830152610f878188610f1a565b90508181036060830152610f9b8187610f1a565b9050610faa6080830186610e73565b610fb760a0830185610e73565b610fc460c0830184610e73565b98975050505050505050565b6000602082019050610fe56000830184610e73565b92915050565b600081519050919050565b600082825260208201905092915050565b6000819050602082019050919050565b61102081610e10565b82525050565b61102f81610ea2565b82525050565b600082825260208201905092915050565b600061105182610ec3565b61105b8185611035565b935061106b818560208601610edf565b61107481610f09565b840191505092915050565b600060e0830160008301516110976000860182611017565b5060208301516110aa6020860182611026565b50604083015184820360408601526110c28282611046565b915050606083015184820360608601526110dc8282611046565b91505060808301516110f16080860182611017565b5060a083015161110460a0860182611017565b5060c083015161111760c0860182611017565b508091505092915050565b600061112e838361107f565b905092915050565b6000602082019050919050565b600061114e82610feb565b6111588185610ff6565b93508360208202850161116a85611007565b8060005b858110156111a657848403895281516111878582611122565b945061119283611136565b925060208a0199505060018101905061116e565b50829750879550505050505092915050565b600060208201905081810360008301526111d28184611143565b905092915050565b600080fd5b600080fd5b600080fd5b60008083601f8401126111ff576111fe6111da565b5b8235905067ffffffffffffffff81111561121c5761121b6111df565b5b602083019150836001820283011115611238576112376111e4565b5b9250929050565b6000806000806040858703121561125957611258610e06565b5b600085013567ffffffffffffffff81111561127757611276610e0b565b5b611283878288016111e9565b9450945050602085013567ffffffffffffffff8111156112a6576112a5610e0b565b5b6112b2878288016111e9565b925092505092959194509250565b6112c981610ea2565b81146112d457600080fd5b50565b6000813590506112e6816112c0565b92915050565b6000806040838503121561130357611302610e06565b5b600061131185828601610e31565b9250506020611322858286016112d7565b9150509250929050565b60008115159050919050565b6113418161132c565b82525050565b600060208201905061135c6000830184611338565b92915050565b60006020828403121561137857611377610e06565b5b6000611386848285016112d7565b91505092915050565b7f4e487b7100000000000000000000000000000000000000000000000000000000600052602260045260246000fd5b600060028204905060018216806113d657607f821691505b6020821081036113e9576113e861138f565b5b50919050565b7f4e487b7100000000000000000000000000000000000000000000000000000000600052604160045260246000fd5b7f4e487b7100000000000000000000000000000000000000000000000000000000600052603260045260246000fd5b7f4e487b7100000000000000000000000000000000000000000000000000000000600052601160045260246000fd5b600061148782610e10565b91507fffffffffffffffffffffffffffffffffffffffffffffffffffffffffffffffff82036114b9576114b861144d565b5b600182019050919050565b7f496d6167652055524c2063616e6e6f7420626520656d70747900000000000000600082015250565b60006114fa601983610ece565b9150611505826114c4565b602082019050919050565b60006020820190508181036000830152611529816114ed565b9050919050565b7f43617074696f6e2063616e6e6f7420626520656d707479000000000000000000600082015250565b6000611566601783610ece565b915061157182611530565b602082019050919050565b6000602082019050818103600083015261159581611559565b9050919050565b60008190508160005260206000209050919050565b60006020601f8301049050919050565b600082821b905092915050565b6000600883026115fe7fffffffffffffffffffffffffffffffffffffffffffffffffffffffffffffffff826115c1565b61160886836115c1565b95508019841693508086168417925050509392505050565b6000819050919050565b600061164561164061163b84610e10565b611620565b610e10565b9050919050565b6000819050919050565b61165f8361162a565b61167361166b8261164c565b8484546115ce565b825550505050565b600090565b61168861167b565b611693818484611656565b505050565b5b818110156116b7576116ac600082611680565b600181019050611699565b5050565b601f8211156116fc576116cd8161159c565b6116d6846115b1565b810160208510156116e5578190505b6116f96116f1856115b1565b830182611698565b50505b505050565b600082821c905092915050565b600061171f60001984600802611701565b1980831691505092915050565b6000611738838361170e565b9150826002028217905092915050565b61175182610ec3565b67ffffffffffffffff81111561176a576117696113ef565b5b61177482546113be565b61177f8282856116bb565b600060209050601f8311600181146117b257600084156117a0578287015190505b6117aa858261172c565b865550611812565b601f1984166117c08661159c565b60005b828110156117e8578489015182556001820191506020850194506020810190506117c3565b868310156118055784890151611801601f89168261170e565b8355505b6001600288020188555050505b505050505050565b82818337600083830152505050565b60006118358385610ece565b935061184283858461181a565b61184b83610f09565b840190509392505050565b60006060820190508181036000830152611871818789611829565b90508181036020830152611886818587611829565b90506118956040830184610e73565b9695505050505050565b7f506f737420646f6573206e6f7420657869737400000000000000000000000000600082015250565b60006118d5601383610ece565b91506118e08261189f565b602082019050919050565b60006020820190508181036000830152611904816118c8565b9050919050565b7f496e73756666696369656e74204554482073656e740000000000000000000000600082015250565b6000611941601583610ece565b915061194c8261190b565b602082019050919050565b6000602082019050818103600083015261197081611934565b9050919050565b7f416c7265616479206c696b656400000000000000000000000000000000000000600082015250565b60006119ad600d83610ece565b91506119b882611977565b602082019050919050565b600060208201905081810360008301526119dc816119a0565b9050919050565b7f43616e6e6f74206c696b6520796f7572206f776e20706f737400000000000000600082015250565b6000611a19601983610ece565b9150611a24826119e3565b602082019050919050565b60006020820190508181036000830152611a4881611a0c565b9050919050565b6000611a5a82610e10565b9150611a6583610e10565b9250828201905080821115611a7d57611a7c61144d565b5b92915050565b600081905092915050565b50565b6000611a9e600083611a83565b9150611aa982611a8e565b600082019050919050565b6000611abf82611a91565b9150819050919050565b7f455448207472616e73666572206661696c656400000000000000000000000000600082015250565b6000611aff601383610ece565b9150611b0a82611ac9565b602082019050919050565b60006020820190508181036000830152611b2e81611af2565b905091905056fea26469706673582212205c840e8af3119712b5cf9f09af957aae8b098902e0b9fd43ffc5647031a9057f64736f6c63430008140033",
  "linkReferences": {},
  "deployedLinkReferences": {}
}